{
  "contractName": "Storage",
  "abi": [
    {
      "inputs": [],
      "name": "a",
      "outputs": [
        {
          "internalType": "uint8",
          "name": "",
          "type": "uint8"
        }
      ],
      "stateMutability": "view",
      "type": "function",
      "constant": true
    },
    {
      "inputs": [
        {
          "internalType": "uint256",
          "name": "",
          "type": "uint256"
        }
      ],
      "name": "aa",
      "outputs": [
        {
          "internalType": "uint256",
          "name": "",
          "type": "uint256"
        }
      ],
      "stateMutability": "view",
      "type": "function",
      "constant": true
    },
    {
      "inputs": [],
      "name": "b",
      "outputs": [
        {
          "internalType": "uint16",
          "name": "",
          "type": "uint16"
        }
      ],
      "stateMutability": "view",
      "type": "function",
      "constant": true
    },
    {
      "inputs": [
        {
          "internalType": "address",
          "name": "",
          "type": "address"
        }
      ],
      "name": "bb",
      "outputs": [
        {
          "internalType": "uint256",
          "name": "",
          "type": "uint256"
        }
      ],
      "stateMutability": "view",
      "type": "function",
      "constant": true
    },
    {
      "inputs": [],
      "name": "c",
      "outputs": [
        {
          "internalType": "address",
          "name": "",
          "type": "address"
        }
      ],
      "stateMutability": "view",
      "type": "function",
      "constant": true
    },
    {
      "inputs": [],
      "name": "e",
      "outputs": [
        {
          "internalType": "uint64",
          "name": "",
          "type": "uint64"
        }
      ],
      "stateMutability": "view",
      "type": "function",
      "constant": true
    },
    {
      "inputs": [],
      "name": "f",
      "outputs": [
        {
          "internalType": "uint256",
          "name": "",
          "type": "uint256"
        }
      ],
      "stateMutability": "view",
      "type": "function",
      "constant": true
    },
    {
      "inputs": [],
      "name": "g",
      "outputs": [
        {
          "internalType": "uint8",
          "name": "",
          "type": "uint8"
        }
      ],
      "stateMutability": "view",
      "type": "function",
      "constant": true
    },
    {
      "inputs": [],
      "name": "h",
      "outputs": [
        {
          "internalType": "uint256",
          "name": "",
          "type": "uint256"
        }
      ],
      "stateMutability": "view",
      "type": "function",
      "constant": true
    }
  ],
  "bytecode": "0x60806040526007600260006101000a81548160ff021916908360ff160217905550600a600260016101000a81548161ffff021916908361ffff16021790555073648faad551af1da6d6556f0e3c41b37b6055bad1600260036101000a81548173ffffffffffffffffffffffffffffffffffffffff021916908373ffffffffffffffffffffffffffffffffffffffff1602179055506001600260176101000a81548160ff021916908315150217905550600f600260186101000a81548167ffffffffffffffff021916908367ffffffffffffffff16021790555060c86003556028600460006101000a81548160ff021916908360ff16021790555061031560055534801561010b57600080fd5b506104aa8061011b6000396000f3fe608060405234801561001057600080fd5b50600436106100935760003560e01c8063b8c9d36511610066578063b8c9d36514610122578063c3da42b814610140578063e1d9bbbd1461015e578063e2179b8e1461018e578063ffae15ba146101ac57610093565b80630dbe671f1461009857806326121ff0146100b65780634df7e3d0146100d45780637323febe146100f2575b600080fd5b6100a06101ca565b6040516100ad919061029c565b60405180910390f35b6100be6101dd565b6040516100cb91906102d0565b60405180910390f35b6100dc6101e3565b6040516100e99190610308565b60405180910390f35b61010c60048036038101906101079190610354565b6101f7565b60405161011991906102d0565b60405180910390f35b61012a61020f565b60405161013791906102d0565b60405180910390f35b610148610215565b60405161015591906103c2565b60405180910390f35b61017860048036038101906101739190610409565b61023b565b60405161018591906102d0565b60405180910390f35b610196610253565b6040516101a3919061029c565b60405180910390f35b6101b4610266565b6040516101c19190610459565b60405180910390f35b600260009054906101000a900460ff1681565b60035481565b600260019054906101000a900461ffff1681565b60006020528060005260406000206000915090505481565b60055481565b600260039054906101000a900473ffffffffffffffffffffffffffffffffffffffff1681565b60016020528060005260406000206000915090505481565b600460009054906101000a900460ff1681565b600260189054906101000a900467ffffffffffffffff1681565b600060ff82169050919050565b61029681610280565b82525050565b60006020820190506102b1600083018461028d565b92915050565b6000819050919050565b6102ca816102b7565b82525050565b60006020820190506102e560008301846102c1565b92915050565b600061ffff82169050919050565b610302816102eb565b82525050565b600060208201905061031d60008301846102f9565b92915050565b600080fd5b610331816102b7565b811461033c57600080fd5b50565b60008135905061034e81610328565b92915050565b60006020828403121561036a57610369610323565b5b60006103788482850161033f565b91505092915050565b600073ffffffffffffffffffffffffffffffffffffffff82169050919050565b60006103ac82610381565b9050919050565b6103bc816103a1565b82525050565b60006020820190506103d760008301846103b3565b92915050565b6103e6816103a1565b81146103f157600080fd5b50565b600081359050610403816103dd565b92915050565b60006020828403121561041f5761041e610323565b5b600061042d848285016103f4565b91505092915050565b600067ffffffffffffffff82169050919050565b61045381610436565b82525050565b600060208201905061046e600083018461044a565b9291505056fea2646970667358221220af345ff82b692f82d6dc11b5868e8f66db365073a1782696b5449832010bed2a64736f6c63430008110033",
  "immutableReferences": {},
  "source": "// SPDX-License-Identifier: MIT\r\npragma solidity >=0.4.22 <0.9.0;\r\n\r\ncontract Storage {\r\n\r\n  \r\n  mapping(uint => uint) public aa; // slot 0\r\n  mapping(address => uint) public bb; // slot 1\r\n\r\n  // keccak256(key . slot)\r\n\r\n  uint8 public a = 7; // 1 byte\r\n  uint16 public b = 10; // 2bytes\r\n  address public c = 0x648FaaD551af1DA6d6556f0E3C41B37B6055bAD1; // 20bytes\r\n  bool d = true; // 1 byte\r\n  uint64 public e = 15; // 8bytes\r\n  // 32 bytes, all values will be stored in slot 2\r\n\r\n  // 0x 0f 01 648faad551af1da6d6556f0e3c41b37b6055bad1 000a 07\r\n\r\n  uint256 public f = 200; // 32bytes -> slot 4\r\n\r\n  uint8 public g = 40; // 1byte -> slot 4\r\n\r\n  uint256 public h = 789; // 32bytes -> slot 5\r\n\r\n}",
  "sourcePath": "C:\\Users\\arnav\\Desktop\\Solidity\\blockchain\\faucet\\contracts\\storage.sol",
  "compiler": {
    "name": "solc",
    "version": "0.8.17+commit.8df45f5f.Emscripten.clang"
  },
  "schemaVersion": "3.4.10",
  "updatedAt": "2023-01-05T11:34:39.779Z",
  "networkType": "ethereum",
  "devdoc": {
    "kind": "dev",
    "methods": {},
    "version": 1
  },
  "userdoc": {
    "kind": "user",
    "methods": {},
    "version": 1
  }
}